{
  "_format": "hh-sol-artifact-1",
  "contractName": "MarketMaker",
  "sourceName": "contracts/MarketMaker.sol",
  "abi": [
    {
      "inputs": [
        {
          "internalType": "address",
          "name": "_baseToken",
          "type": "address"
        },
        {
          "internalType": "address",
          "name": "_pairedToken",
          "type": "address"
        },
        {
          "internalType": "address",
          "name": "_owner_",
          "type": "address"
        },
        {
          "internalType": "address",
          "name": "_moderator",
          "type": "address"
        },
        {
          "internalType": "address payable",
          "name": "_controller",
          "type": "address"
        },
        {
          "internalType": "bool",
          "name": "_paused_",
          "type": "bool"
        },
        {
          "internalType": "address",
          "name": "_marketMakerTrader",
          "type": "address"
        },
        {
          "internalType": "address",
          "name": "_masterContract",
          "type": "address"
        }
      ],
      "stateMutability": "nonpayable",
      "type": "constructor"
    },
    {
      "anonymous": false,
      "inputs": [
        {
          "indexed": true,
          "internalType": "address",
          "name": "user",
          "type": "address"
        },
        {
          "indexed": false,
          "internalType": "uint256",
          "name": "amount",
          "type": "uint256"
        }
      ],
      "name": "AmountReleased",
      "type": "event"
    },
    {
      "anonymous": false,
      "inputs": [
        {
          "indexed": true,
          "internalType": "address",
          "name": "user",
          "type": "address"
        },
        {
          "indexed": false,
          "internalType": "uint256",
          "name": "amount",
          "type": "uint256"
        }
      ],
      "name": "BaseTokenStakeInLiquidity",
      "type": "event"
    },
    {
      "anonymous": false,
      "inputs": [
        {
          "indexed": false,
          "internalType": "address",
          "name": "OldMarketMakerTrader",
          "type": "address"
        },
        {
          "indexed": false,
          "internalType": "address",
          "name": "NewMarketMakerTrader",
          "type": "address"
        }
      ],
      "name": "ChangeMarketMakerTrader",
      "type": "event"
    },
    {
      "anonymous": false,
      "inputs": [
        {
          "indexed": true,
          "internalType": "address",
          "name": "beneficiary",
          "type": "address"
        },
        {
          "indexed": false,
          "internalType": "uint256",
          "name": "amount",
          "type": "uint256"
        }
      ],
      "name": "CreatedVestingSchedule",
      "type": "event"
    },
    {
      "anonymous": false,
      "inputs": [
        {
          "indexed": false,
          "internalType": "uint256",
          "name": "claimedBaseFee",
          "type": "uint256"
        },
        {
          "indexed": false,
          "internalType": "uint256",
          "name": "claimedPairedFee",
          "type": "uint256"
        }
      ],
      "name": "FeesClaimed",
      "type": "event"
    },
    {
      "anonymous": false,
      "inputs": [
        {
          "indexed": true,
          "internalType": "address",
          "name": "previousOwner",
          "type": "address"
        },
        {
          "indexed": true,
          "internalType": "address",
          "name": "newOwner",
          "type": "address"
        }
      ],
      "name": "OwnershipTransferred",
      "type": "event"
    },
    {
      "anonymous": false,
      "inputs": [
        {
          "indexed": true,
          "internalType": "address",
          "name": "user",
          "type": "address"
        },
        {
          "indexed": false,
          "internalType": "uint256",
          "name": "amount",
          "type": "uint256"
        }
      ],
      "name": "PairedTokenStakeInLiquidity",
      "type": "event"
    },
    {
      "anonymous": false,
      "inputs": [
        {
          "indexed": false,
          "internalType": "address",
          "name": "account",
          "type": "address"
        }
      ],
      "name": "Paused",
      "type": "event"
    },
    {
      "anonymous": false,
      "inputs": [
        {
          "indexed": false,
          "internalType": "bool",
          "name": "allowReleasing",
          "type": "bool"
        }
      ],
      "name": "SetAllowReleasing",
      "type": "event"
    },
    {
      "anonymous": false,
      "inputs": [
        {
          "indexed": false,
          "internalType": "bool",
          "name": "allowSelling",
          "type": "bool"
        }
      ],
      "name": "SetAllowSelling",
      "type": "event"
    },
    {
      "anonymous": false,
      "inputs": [
        {
          "indexed": false,
          "internalType": "uint8",
          "name": "ratio",
          "type": "uint8"
        }
      ],
      "name": "SetMaxBaseLiquidityRatio",
      "type": "event"
    },
    {
      "anonymous": false,
      "inputs": [
        {
          "indexed": false,
          "internalType": "uint8",
          "name": "ratio",
          "type": "uint8"
        }
      ],
      "name": "SetMaxPairedLiquidityRatio",
      "type": "event"
    },
    {
      "anonymous": false,
      "inputs": [
        {
          "indexed": true,
          "internalType": "address",
          "name": "user",
          "type": "address"
        },
        {
          "indexed": false,
          "internalType": "uint256",
          "name": "amount",
          "type": "uint256"
        }
      ],
      "name": "Staked",
      "type": "event"
    },
    {
      "anonymous": false,
      "inputs": [
        {
          "indexed": true,
          "internalType": "address",
          "name": "user",
          "type": "address"
        },
        {
          "indexed": false,
          "internalType": "uint256",
          "name": "amount",
          "type": "uint256"
        }
      ],
      "name": "StakedInPairedToken",
      "type": "event"
    },
    {
      "anonymous": false,
      "inputs": [
        {
          "indexed": false,
          "internalType": "address",
          "name": "account",
          "type": "address"
        }
      ],
      "name": "Unpaused",
      "type": "event"
    },
    {
      "anonymous": false,
      "inputs": [
        {
          "indexed": true,
          "internalType": "address",
          "name": "user",
          "type": "address"
        },
        {
          "indexed": false,
          "internalType": "uint256",
          "name": "amount",
          "type": "uint256"
        }
      ],
      "name": "VestingRevoked",
      "type": "event"
    },
    {
      "anonymous": false,
      "inputs": [
        {
          "indexed": true,
          "internalType": "address",
          "name": "user",
          "type": "address"
        },
        {
          "indexed": false,
          "internalType": "uint256",
          "name": "amount",
          "type": "uint256"
        }
      ],
      "name": "WithdrawnBaseToken",
      "type": "event"
    },
    {
      "anonymous": false,
      "inputs": [
        {
          "indexed": true,
          "internalType": "address",
          "name": "user",
          "type": "address"
        },
        {
          "indexed": false,
          "internalType": "uint256",
          "name": "amount",
          "type": "uint256"
        }
      ],
      "name": "WithdrawnPairedToken",
      "type": "event"
    },
    {
      "inputs": [],
      "name": "availableBaseFee",
      "outputs": [
        {
          "internalType": "uint256",
          "name": "",
          "type": "uint256"
        }
      ],
      "stateMutability": "view",
      "type": "function"
    },
    {
      "inputs": [],
      "name": "availablePairedFee",
      "outputs": [
        {
          "internalType": "uint256",
          "name": "",
          "type": "uint256"
        }
      ],
      "stateMutability": "view",
      "type": "function"
    },
    {
      "inputs": [],
      "name": "baseTokenAddress",
      "outputs": [
        {
          "internalType": "address",
          "name": "",
          "type": "address"
        }
      ],
      "stateMutability": "view",
      "type": "function"
    },
    {
      "inputs": [
        {
          "internalType": "uint256[]",
          "name": "amountsIn",
          "type": "uint256[]"
        },
        {
          "internalType": "address[]",
          "name": "beneficiaryArray",
          "type": "address[]"
        },
        {
          "internalType": "uint256",
          "name": "slippage",
          "type": "uint256"
        },
        {
          "internalType": "string",
          "name": "exchange",
          "type": "string"
        }
      ],
      "name": "buy",
      "outputs": [],
      "stateMutability": "nonpayable",
      "type": "function"
    },
    {
      "inputs": [],
      "name": "claimFees",
      "outputs": [],
      "stateMutability": "nonpayable",
      "type": "function"
    },
    {
      "inputs": [
        {
          "internalType": "address",
          "name": "beneficiary",
          "type": "address"
        }
      ],
      "name": "computeReleasableAmount",
      "outputs": [
        {
          "internalType": "uint256",
          "name": "",
          "type": "uint256"
        }
      ],
      "stateMutability": "view",
      "type": "function"
    },
    {
      "inputs": [],
      "name": "controller",
      "outputs": [
        {
          "internalType": "address payable",
          "name": "",
          "type": "address"
        }
      ],
      "stateMutability": "view",
      "type": "function"
    },
    {
      "inputs": [
        {
          "internalType": "address[]",
          "name": "beneficiaryArray",
          "type": "address[]"
        },
        {
          "internalType": "uint32",
          "name": "start",
          "type": "uint32"
        },
        {
          "internalType": "uint32",
          "name": "cliff",
          "type": "uint32"
        },
        {
          "internalType": "uint32",
          "name": "duration",
          "type": "uint32"
        },
        {
          "internalType": "uint32",
          "name": "slicePeriodSeconds",
          "type": "uint32"
        },
        {
          "internalType": "bool",
          "name": "revocable",
          "type": "bool"
        },
        {
          "internalType": "uint256[]",
          "name": "amounts",
          "type": "uint256[]"
        }
      ],
      "name": "createVestingSchedule",
      "outputs": [],
      "stateMutability": "nonpayable",
      "type": "function"
    },
    {
      "inputs": [
        {
          "internalType": "address",
          "name": "",
          "type": "address"
        }
      ],
      "name": "holdersMapping",
      "outputs": [
        {
          "internalType": "uint256",
          "name": "balanceInBaseToken",
          "type": "uint256"
        },
        {
          "internalType": "uint256",
          "name": "balanceInPairedToken",
          "type": "uint256"
        },
        {
          "internalType": "uint256",
          "name": "baseTokenStakedInLiquidity",
          "type": "uint256"
        },
        {
          "internalType": "uint256",
          "name": "pairedTokenStakedInLiquidity",
          "type": "uint256"
        },
        {
          "internalType": "uint120",
          "name": "baseAmountBought",
          "type": "uint120"
        },
        {
          "internalType": "uint120",
          "name": "pairedAmountBought",
          "type": "uint120"
        },
        {
          "internalType": "uint8",
          "name": "maxBaseLiquidityRatio",
          "type": "uint8"
        },
        {
          "internalType": "uint8",
          "name": "maxPairedLiquidityRatio",
          "type": "uint8"
        },
        {
          "internalType": "uint120",
          "name": "baseAmountSold",
          "type": "uint120"
        },
        {
          "internalType": "uint120",
          "name": "pairedAmountSold",
          "type": "uint120"
        },
        {
          "internalType": "bool",
          "name": "allowSelling",
          "type": "bool"
        }
      ],
      "stateMutability": "view",
      "type": "function"
    },
    {
      "inputs": [
        {
          "internalType": "address",
          "name": "",
          "type": "address"
        }
      ],
      "name": "holdersVestingMapping",
      "outputs": [
        {
          "internalType": "uint256",
          "name": "amountVested",
          "type": "uint256"
        },
        {
          "internalType": "uint256",
          "name": "released",
          "type": "uint256"
        },
        {
          "internalType": "uint32",
          "name": "cliff",
          "type": "uint32"
        },
        {
          "internalType": "uint32",
          "name": "start",
          "type": "uint32"
        },
        {
          "internalType": "uint32",
          "name": "duration",
          "type": "uint32"
        },
        {
          "internalType": "uint32",
          "name": "slicePeriodSeconds",
          "type": "uint32"
        },
        {
          "internalType": "bool",
          "name": "revocable",
          "type": "bool"
        },
        {
          "internalType": "bool",
          "name": "allowReleasing",
          "type": "bool"
        }
      ],
      "stateMutability": "view",
      "type": "function"
    },
    {
      "inputs": [],
      "name": "liquidityMaker",
      "outputs": [
        {
          "internalType": "contract ILiquidityMaker",
          "name": "",
          "type": "address"
        }
      ],
      "stateMutability": "view",
      "type": "function"
    },
    {
      "inputs": [],
      "name": "marketMakerTrader",
      "outputs": [
        {
          "internalType": "contract IMarketMakerTrader",
          "name": "",
          "type": "address"
        }
      ],
      "stateMutability": "view",
      "type": "function"
    },
    {
      "inputs": [],
      "name": "masterContract",
      "outputs": [
        {
          "internalType": "contract IMasterContract",
          "name": "",
          "type": "address"
        }
      ],
      "stateMutability": "view",
      "type": "function"
    },
    {
      "inputs": [],
      "name": "moderator",
      "outputs": [
        {
          "internalType": "address",
          "name": "",
          "type": "address"
        }
      ],
      "stateMutability": "view",
      "type": "function"
    },
    {
      "inputs": [],
      "name": "owner",
      "outputs": [
        {
          "internalType": "address",
          "name": "",
          "type": "address"
        }
      ],
      "stateMutability": "view",
      "type": "function"
    },
    {
      "inputs": [],
      "name": "pairedTokenAddress",
      "outputs": [
        {
          "internalType": "address",
          "name": "",
          "type": "address"
        }
      ],
      "stateMutability": "view",
      "type": "function"
    },
    {
      "inputs": [],
      "name": "paused",
      "outputs": [
        {
          "internalType": "bool",
          "name": "",
          "type": "bool"
        }
      ],
      "stateMutability": "view",
      "type": "function"
    },
    {
      "inputs": [],
      "name": "recoverETH",
      "outputs": [],
      "stateMutability": "nonpayable",
      "type": "function"
    },
    {
      "inputs": [],
      "name": "release",
      "outputs": [],
      "stateMutability": "nonpayable",
      "type": "function"
    },
    {
      "inputs": [
        {
          "internalType": "address[]",
          "name": "beneficiaryArray",
          "type": "address[]"
        }
      ],
      "name": "releaseFor",
      "outputs": [],
      "stateMutability": "nonpayable",
      "type": "function"
    },
    {
      "inputs": [],
      "name": "renounceOwnership",
      "outputs": [],
      "stateMutability": "nonpayable",
      "type": "function"
    },
    {
      "inputs": [
        {
          "internalType": "address",
          "name": "beneficiary",
          "type": "address"
        }
      ],
      "name": "revoke",
      "outputs": [],
      "stateMutability": "nonpayable",
      "type": "function"
    },
    {
      "inputs": [
        {
          "internalType": "uint256[]",
          "name": "amountsIn",
          "type": "uint256[]"
        },
        {
          "internalType": "address[]",
          "name": "beneficiaryArray",
          "type": "address[]"
        },
        {
          "internalType": "uint256",
          "name": "slippage",
          "type": "uint256"
        },
        {
          "internalType": "string",
          "name": "exchange",
          "type": "string"
        }
      ],
      "name": "sell",
      "outputs": [],
      "stateMutability": "nonpayable",
      "type": "function"
    },
    {
      "inputs": [
        {
          "internalType": "bool",
          "name": "allowReleasing",
          "type": "bool"
        }
      ],
      "name": "setAllowReleasing",
      "outputs": [],
      "stateMutability": "nonpayable",
      "type": "function"
    },
    {
      "inputs": [
        {
          "internalType": "bool",
          "name": "allowSelling",
          "type": "bool"
        }
      ],
      "name": "setAllowSelling",
      "outputs": [],
      "stateMutability": "nonpayable",
      "type": "function"
    },
    {
      "inputs": [
        {
          "internalType": "address",
          "name": "liquidityMakerAddress",
          "type": "address"
        }
      ],
      "name": "setLiquidityMaker",
      "outputs": [],
      "stateMutability": "nonpayable",
      "type": "function"
    },
    {
      "inputs": [
        {
          "internalType": "address",
          "name": "marketMakerTraderAddress",
          "type": "address"
        }
      ],
      "name": "setMarketMakerTrader",
      "outputs": [],
      "stateMutability": "nonpayable",
      "type": "function"
    },
    {
      "inputs": [
        {
          "internalType": "uint8",
          "name": "ratio",
          "type": "uint8"
        }
      ],
      "name": "setMaxBaseLiquidityRatio",
      "outputs": [],
      "stateMutability": "nonpayable",
      "type": "function"
    },
    {
      "inputs": [
        {
          "internalType": "uint8",
          "name": "ratio",
          "type": "uint8"
        }
      ],
      "name": "setMaxPairedLiquidityRatio",
      "outputs": [],
      "stateMutability": "nonpayable",
      "type": "function"
    },
    {
      "inputs": [
        {
          "internalType": "uint256",
          "name": "amount",
          "type": "uint256"
        }
      ],
      "name": "stake",
      "outputs": [],
      "stateMutability": "nonpayable",
      "type": "function"
    },
    {
      "inputs": [
        {
          "internalType": "uint256[]",
          "name": "amounts",
          "type": "uint256[]"
        },
        {
          "internalType": "address[]",
          "name": "beneficiaryArray",
          "type": "address[]"
        }
      ],
      "name": "stakeBatch",
      "outputs": [],
      "stateMutability": "nonpayable",
      "type": "function"
    },
    {
      "inputs": [
        {
          "internalType": "uint256[]",
          "name": "amountsBaseTokenIn",
          "type": "uint256[]"
        },
        {
          "internalType": "address[]",
          "name": "beneficiaryBaseArray",
          "type": "address[]"
        },
        {
          "internalType": "uint256[]",
          "name": "amountsPairedTokenIn",
          "type": "uint256[]"
        },
        {
          "internalType": "address[]",
          "name": "beneficiaryPairedArray",
          "type": "address[]"
        },
        {
          "internalType": "uint256",
          "name": "slippage",
          "type": "uint256"
        },
        {
          "internalType": "string",
          "name": "exchange",
          "type": "string"
        }
      ],
      "name": "stakeInLiquidityMaker",
      "outputs": [],
      "stateMutability": "nonpayable",
      "type": "function"
    },
    {
      "inputs": [
        {
          "internalType": "uint256",
          "name": "amount",
          "type": "uint256"
        }
      ],
      "name": "stakePairedToken",
      "outputs": [],
      "stateMutability": "nonpayable",
      "type": "function"
    },
    {
      "inputs": [],
      "name": "stakePairedTokenInETH",
      "outputs": [],
      "stateMutability": "payable",
      "type": "function"
    },
    {
      "inputs": [],
      "name": "stakePairedTokenInETHInLiquidity",
      "outputs": [],
      "stateMutability": "payable",
      "type": "function"
    },
    {
      "inputs": [
        {
          "internalType": "uint256",
          "name": "amount",
          "type": "uint256"
        }
      ],
      "name": "stakePairedTokenInLiquidity",
      "outputs": [],
      "stateMutability": "nonpayable",
      "type": "function"
    },
    {
      "inputs": [],
      "name": "totalVested",
      "outputs": [
        {
          "internalType": "uint256",
          "name": "",
          "type": "uint256"
        }
      ],
      "stateMutability": "view",
      "type": "function"
    },
    {
      "inputs": [
        {
          "internalType": "address",
          "name": "newOwner",
          "type": "address"
        }
      ],
      "name": "transferOwnership",
      "outputs": [],
      "stateMutability": "nonpayable",
      "type": "function"
    },
    {
      "inputs": [],
      "name": "unpause",
      "outputs": [],
      "stateMutability": "nonpayable",
      "type": "function"
    },
    {
      "inputs": [
        {
          "internalType": "uint256",
          "name": "amount",
          "type": "uint256"
        }
      ],
      "name": "withdrawBaseToken",
      "outputs": [],
      "stateMutability": "nonpayable",
      "type": "function"
    },
    {
      "inputs": [
        {
          "internalType": "uint256",
          "name": "amount",
          "type": "uint256"
        }
      ],
      "name": "withdrawPairedToken",
      "outputs": [],
      "stateMutability": "nonpayable",
      "type": "function"
    },
    {
      "stateMutability": "payable",
      "type": "receive"
    }
  ],
  "bytecode": "0x6101406040523480156200001257600080fd5b506040516200519b3803806200519b833981016040819052620000359162000483565b62000040336200013e565b600180556002805460ff191690556001600160a01b0388166200006257600080fd5b6001600160a01b0387166200007657600080fd5b6001600160a01b0385166200008a57600080fd5b6001600160a01b0384166200009e57600080fd5b6001600160a01b038216620000b257600080fd5b6001600160a01b038116620000c657600080fd5b6001600160a01b0388811660e081905260c0528781166101208190526101005284811660805285811660a052600380546001600160a01b03191691831691909117905562000114826200018e565b6200011f86620002d5565b821562000130576200013062000354565b505050505050505062000565565b600080546001600160a01b038381166001600160a01b0319831681178455604051919092169283917f8be0079c531659141344cd1fd0a4f28419497f9722a3daafe3b4186f6b6457e09190a35050565b600254604080516001600160a01b036101009093048316815291831660208301527fd5ab0ba977775ab51b7d5a1af0f0d324899d0fdaf673af0e59f567724025b108910160405180910390a1600354604051630b90f5dd60e41b81526001600160a01b0383811660048301529091169063b90f5dd09060240160206040518083038186803b1580156200022057600080fd5b505afa15801562000235573d6000803e3d6000fd5b505050506040513d601f19601f820116820180604052508101906200025b919062000540565b620002ad5760405162461bcd60e51b815260206004820152601d60248201527f4d61726b65744d616b6572547261646572206e6f7420616c6c6f77656400000060448201526064015b60405180910390fd5b600280546001600160a01b0390921661010002610100600160a81b0319909216919091179055565b620002df620003b1565b6001600160a01b038116620003465760405162461bcd60e51b815260206004820152602660248201527f4f776e61626c653a206e6577206f776e657220697320746865207a65726f206160448201526564647265737360d01b6064820152608401620002a4565b62000351816200013e565b50565b6200035e6200040f565b6002805460ff191660011790557f62e78cea01bee320cd4e420270b5ea74000d11b0c9f74754ebdbfc544b05a258620003943390565b6040516001600160a01b03909116815260200160405180910390a1565b6000546001600160a01b031633146200040d5760405162461bcd60e51b815260206004820181905260248201527f4f776e61626c653a2063616c6c6572206973206e6f7420746865206f776e65726044820152606401620002a4565b565b60025460ff16156200040d5760405162461bcd60e51b815260206004820152601060248201526f14185d5cd8589b194e881c185d5cd95960821b6044820152606401620002a4565b6001600160a01b03811681146200035157600080fd5b805180151581146200047e57600080fd5b919050565b600080600080600080600080610100898b031215620004a157600080fd5b8851620004ae8162000457565b60208a0151909850620004c18162000457565b60408a0151909750620004d48162000457565b60608a0151909650620004e78162000457565b60808a0151909550620004fa8162000457565b93506200050a60a08a016200046d565b925060c08901516200051c8162000457565b60e08a01519092506200052f8162000457565b809150509295985092959890939650565b6000602082840312156200055357600080fd5b6200055e826200046d565b9392505050565b60805160a05160c05160e0516101005161012051614aea620006b160003960008181610e6901528181610f380152818161113c0152818161121a015281816115b7015281816116a5015281816128400152818161292c0152612bf701526000818161059d0152818161166401528181611e31015281816126b101528181612b0f015261327f015260008181610e2901528181610ead01528181611091015281816111df015281816118ef01528181611a1c01528181611da501528181611e9301528181612168015281816123a50152818161265f0152612879015260008181610606015281816116430152611e520152600081816103d4015281816108ea01528181611a6c01528181611b1501526127f20152600081816108bd0152818161097d01528181610a660152818161131c01528181611b7f01528181612271015261325d0152614aea6000f3fe60806040526004361061024a5760003560e01c8063715018a611610139578063afbd7ac1116100b6578063d82f19671161007a578063d82f196714610765578063dd1fdb6214610785578063e0d47694146107a5578063e5bf6a7f1461086b578063f2fde38b1461088b578063f77c4791146108ab57600080fd5b8063afbd7ac114610700578063b2822c3114610720578063cb4f7c9014610728578063cd446e2214610730578063d294f0931461075057600080fd5b80639129d8b1116100fd5780639129d8b11461065b578063a4c379591461067b578063a694fc3a1461069b578063a7bcab57146106bb578063aa40c0e0146106e057600080fd5b8063715018a6146105bf57806374a8f103146105d45780637cb374bd146105f457806386d1a69f146106285780638da5cb5b1461063d57600080fd5b80632fdbfbb1116101c757806347fd27f01161018b57806347fd27f0146104385780635c975abb146105285780635d2cd2dc1461054b5780636397d80f1461056b5780636927810d1461058b57600080fd5b80632fdbfbb1146103825780633423ee60146103a257806338743904146103c25780633f4ba83a1461040357806346ab8ab01461041857600080fd5b80631d0afa361161020e5780631d0afa36146102ec5780631de53d941461030c5780631e8b50641461032c578063274aab13146103425780632fd33ddb1461036257600080fd5b80630614117a146102565780630caced841461026d5780631499a8c91461029657806315ab5a18146102b6578063199cbc54146102d657600080fd5b3661025157005b600080fd5b34801561026257600080fd5b5061026b6108df565b005b34801561027957600080fd5b5061028360065481565b6040519081526020015b60405180910390f35b3480156102a257600080fd5b5061026b6102b13660046140c7565b61095f565b3480156102c257600080fd5b5061026b6102d136600461426e565b610972565b3480156102e257600080fd5b5061028360055481565b3480156102f857600080fd5b5061026b61030736600461434f565b611285565b34801561031857600080fd5b5061026b610327366004614372565b611311565b34801561033857600080fd5b5061028360075481565b34801561034e57600080fd5b5061026b61035d36600461434f565b6117db565b34801561036e57600080fd5b5061026b61037d3660046140c7565b61185e565b34801561038e57600080fd5b5061026b61039d36600461440a565b611953565b3480156103ae57600080fd5b5061026b6103bd366004614427565b611964565b3480156103ce57600080fd5b506103f67f000000000000000000000000000000000000000000000000000000000000000081565b60405161028d919061448a565b34801561040f57600080fd5b5061026b611a4d565b34801561042457600080fd5b5061026b61043336600461440a565b611b0a565b34801561044457600080fd5b506104c161045336600461440a565b60086020526000908152604090208054600182015460028301546003840154600485015460059095015493949293919290916001600160781b0380831692600160781b80820483169360ff600160f01b808504821695600160f81b909504821694838116948404169204168b565b604080519b8c5260208c019a909a52988a019790975260608901959095526001600160781b03938416608089015291831660a088015260ff90811660c08801521660e08601529081166101008501521661012083015215156101408201526101600161028d565b34801561053457600080fd5b5060025460ff16604051901515815260200161028d565b34801561055757600080fd5b5061026b610566366004614372565b611b74565b34801561057757600080fd5b5061026b6105863660046144ac565b611fbc565b34801561059757600080fd5b506103f67f000000000000000000000000000000000000000000000000000000000000000081565b3480156105cb57600080fd5b5061026b612050565b3480156105e057600080fd5b5061026b6105ef36600461440a565b612062565b34801561060057600080fd5b506103f67f000000000000000000000000000000000000000000000000000000000000000081565b34801561063457600080fd5b5061026b6121e1565b34801561064957600080fd5b506000546001600160a01b03166103f6565b34801561066757600080fd5b5061026b6106763660046144c9565b612236565b34801561068757600080fd5b506004546103f6906001600160a01b031681565b3480156106a757600080fd5b5061026b6106b63660046140c7565b612370565b3480156106c757600080fd5b506002546103f69061010090046001600160a01b031681565b3480156106ec57600080fd5b5061026b6106fb3660046144ac565b61242b565b34801561070c57600080fd5b5061026b61071b366004614516565b6124b2565b61026b612687565b61026b6127ad565b34801561073c57600080fd5b506003546103f6906001600160a01b031681565b34801561075c57600080fd5b5061026b6127bf565b34801561077157600080fd5b5061026b6107803660046140c7565b6128f7565b34801561079157600080fd5b506102836107a036600461440a565b612964565b3480156107b157600080fd5b5061081e6107c036600461440a565b60096020526000908152604090208054600182015460029092015490919063ffffffff808216916401000000008104821691600160401b8204811691600160601b81049091169060ff600160801b8204811691600160881b90041688565b60408051988952602089019790975263ffffffff958616968801969096529284166060870152908316608086015290911660a0840152151560c0830152151560e08201526101000161028d565b34801561087757600080fd5b5061026b6108863660046140c7565b612a84565b34801561089757600080fd5b5061026b6108a636600461440a565b612c50565b3480156108b757600080fd5b506103f67f000000000000000000000000000000000000000000000000000000000000000081565b336001600160a01b037f000000000000000000000000000000000000000000000000000000000000000016146109305760405162461bcd60e51b8152600401610927906145d0565b60405180910390fd5b60405133904780156108fc02916000818181858888f1935050505015801561095c573d6000803e3d6000fd5b50565b610968816128f7565b61095c6064611285565b336001600160a01b037f000000000000000000000000000000000000000000000000000000000000000016146109ba5760405162461bcd60e51b81526004016109279061461a565b600260015414156109dd5760405162461bcd60e51b815260040161092790614666565b60026001556109ea612cc6565b6000604051806101200160405280898152602001888152602001878152602001868152602001600081526020016000815260200185815260200184848080601f01602080910402602001604051908101604052809392919081815260200183838082843760009201829052509385525050506001600160a01b037f00000000000000000000000000000000000000000000000000000000000000001660209283015260408051610160810182528281529283018290528201819052606082018190526080820181905260a0820181905260c0820181905260e082018190526101008201819052610120820181905261014082015290915060005b826020015151811015610c78576008600084602001518381518110610b0b57610b0b61469d565b6020908102919091018101516001600160a01b03168252818101929092526040908101600020815161016081018352815481526001820154938101939093526002810154918301919091526003810154606083015260048101546001600160781b038082166080850152600160781b808304821660a086015260ff600160f01b808504821660c0880152600160f81b909404811660e08701526005909401548083166101008701529081049091166101208501520416151561014082015283518051919350610c179183908110610be457610be461469d565b6020026020010151836000015184604001518561010001516001600160781b03168660c0015160ff168760400151612d0c565b8351805183908110610c2b57610c2b61469d565b60209081029190910101528251805182908110610c4a57610c4a61469d565b602002602001015183608001818151610c6391906146c9565b90525080610c70816146e1565b915050610ae4565b5060005b826060015151811015610e12576008600084606001518381518110610ca357610ca361469d565b6020908102919091018101516001600160a01b03168252818101929092526040908101600020815161016081018352815481526001820154938101939093526002810154838301526003810154606084015260048101546001600160781b038082166080860152600160781b808304821660a087015260ff600160f01b808504821660c0890152600160f81b909404811660e0880152600590940154808316610100880152908104909116610120860152041615156101408301528401518051919350610dac9183908110610d7a57610d7a61469d565b6020026020010151836020015184606001518560a001516001600160781b03168660e0015160ff168760600151612d0c565b83604001518281518110610dc257610dc261469d565b60200260200101818152505082604001518181518110610de457610de461469d565b60200260200101518360a001818151610dfd91906146c9565b90525080610e0a816146e1565b915050610c7c565b506004546080830151610e53916001600160a01b037f0000000000000000000000000000000000000000000000000000000000000000811692911690612d9a565b60045460a0830151610e93916001600160a01b037f0000000000000000000000000000000000000000000000000000000000000000811692911690612d9a565b6040516370a0823160e01b81526000906001600160a01b037f000000000000000000000000000000000000000000000000000000000000000016906370a0823190610ee290309060040161448a565b60206040518083038186803b158015610efa57600080fd5b505afa158015610f0e573d6000803e3d6000fd5b505050506040513d601f19601f82011682018060405250810190610f3291906146fc565b905060007f00000000000000000000000000000000000000000000000000000000000000006001600160a01b03166370a08231306040518263ffffffff1660e01b8152600401610f82919061448a565b60206040518083038186803b158015610f9a57600080fd5b505afa158015610fae573d6000803e3d6000fd5b505050506040513d601f19601f82011682018060405250810190610fd291906146fc565b9050600460009054906101000a90046001600160a01b03166001600160a01b0316636f5e6fbc856000015186602001518760400151886060015189608001518a60a001518b60c001518c60e001518d61010001516040518a63ffffffff1660e01b815260040161104a999897969594939291906147e1565b600060405180830381600087803b15801561106457600080fd5b505af1158015611078573d6000803e3d6000fd5b50506040516370a0823160e01b81526001600160a01b037f00000000000000000000000000000000000000000000000000000000000000001692506370a0823191506110c890309060040161448a565b60206040518083038186803b1580156110e057600080fd5b505afa1580156110f4573d6000803e3d6000fd5b505050506040513d601f19601f8201168201806040525081019061111891906146fc565b6111229083614877565b6040516370a0823160e01b81529092506001600160a01b037f000000000000000000000000000000000000000000000000000000000000000016906370a082319061117190309060040161448a565b60206040518083038186803b15801561118957600080fd5b505afa15801561119d573d6000803e3d6000fd5b505050506040513d601f19601f820116820180604052508101906111c191906146fc565b6111cb9082614877565b600454909150611209906001600160a01b037f0000000000000000000000000000000000000000000000000000000000000000811691166000612e83565b600454611244906001600160a01b037f0000000000000000000000000000000000000000000000000000000000000000811691166000612e83565b61125c84602001518560000151848760800151612f9a565b61127484606001518560400151838760a00151613073565b505060018055505050505050505050565b60648160ff1611156112a95760405162461bcd60e51b81526004016109279061488e565b3360009081526008602090815260409182902060040180546001600160f81b0316600160f81b60ff86169081029190911790915591519182527f4e25c5c642bf30c84233b0cce40eb469a69366b2caec0af9427f9a9e0003952d91015b60405180910390a150565b336001600160a01b037f000000000000000000000000000000000000000000000000000000000000000016146113595760405162461bcd60e51b81526004016109279061461a565b6002600154141561137c5760405162461bcd60e51b815260040161092790614666565b6002600155611389612cc6565b6000806000805b8751811015611585576000600860008a84815181106113b1576113b161469d565b6020908102919091018101516001600160a01b03168252818101929092526040908101600020815161016081018352815481526001820154938101939093526002810154918301919091526003810154606083015260048101546001600160781b038082166080850152600160781b808304821660a086015260ff600160f01b808504821660c0880152600160f81b909404811660e08701526005909401548083166101008701529081049091166101208501520416158015610140830152909150611551576114f789838151811061148c5761148c61469d565b60200260200101516114f28c85815181106114a9576114a961469d565b6020026020010151846000015185604001518661010001516001600160781b03168760c0015160646114db91906148c5565b60ff168861010001516001600160781b0316612d0c565b613145565b8b84815181106115095761150961469d565b6020026020010181955082815250505089828151811061152b5761152b61469d565b60200260200101518561153e91906146c9565b945061154a83856146c9565b9350611572565b60008a83815181106115655761156561469d565b6020026020010181815250505b508061157d816146e1565b915050611390565b50816006600082825461159891906146c9565b90915550506040516370a0823160e01b81526000906001600160a01b037f000000000000000000000000000000000000000000000000000000000000000016906370a08231906115ec90309060040161448a565b60206040518083038186803b15801561160457600080fd5b505afa158015611618573d6000803e3d6000fd5b505050506040513d601f19601f8201168201806040525081019061163c91906146fc565b905061168c7f00000000000000000000000000000000000000000000000000000000000000007f0000000000000000000000000000000000000000000000000000000000000000868a8a8a613212565b6040516370a0823160e01b815281906001600160a01b037f000000000000000000000000000000000000000000000000000000000000000016906370a08231906116da90309060040161448a565b60206040518083038186803b1580156116f257600080fd5b505afa158015611706573d6000803e3d6000fd5b505050506040513d601f19601f8201168201806040525081019061172a91906146fc565b6117349190614877565b90506000805b89518110156117b3576117958a82815181106117585761175861469d565b6020026020010151878d84815181106117735761177361469d565b60200260200101518661178691906148e8565b6117909190614907565b6132ed565b61179f90836146c9565b9150806117ab816146e1565b91505061173a565b5080600760008282546117c691906146c9565b90915550506001805550505050505050505050565b60648160ff1611156117ff5760405162461bcd60e51b81526004016109279061488e565b33600090815260086020908152604091829020600401805460ff60f01b1916600160f01b60ff86169081029190911790915591519182527f5c7edb3ae4e2d04e956ff1dbb6046ab86423eab9ed26efc21552902640cead4b9101611306565b600260015414156118815760405162461bcd60e51b815260040161092790614666565b600260015561188e612cc6565b336000908152600860205260409020548111156118bd5760405162461bcd60e51b815260040161092790614929565b33600090815260086020526040812080548392906118dc908490614877565b9091555061191690506001600160a01b037f00000000000000000000000000000000000000000000000000000000000000001633836133c6565b60405181815233907fb2475cc0963391d593f1a890df550d0c0551e1317e08cba0cdece5014f0555f6906020015b60405180910390a25060018055565b61195b6133e5565b61095c8161343f565b600260015414156119875760405162461bcd60e51b815260040161092790614666565b60026001556000805b8251811015611a0e578381815181106119ab576119ab61469d565b6020026020010151826119be91906146c9565b91506119fc8382815181106119d5576119d561469d565b60200260200101518583815181106119ef576119ef61469d565b6020026020010151613581565b80611a06816146e1565b915050611990565b50611a446001600160a01b037f0000000000000000000000000000000000000000000000000000000000000000163330846135f0565b50506001805550565b6000546001600160a01b0316331480611a8e5750336001600160a01b037f000000000000000000000000000000000000000000000000000000000000000016145b611b005760405162461bcd60e51b815260206004820152603b60248201527f6f6e6c794f776e65724f724d6f64657261746f723a2063616c6c65722069732060448201527f6e6f7420746865206f776e6572206e6f72206d6f64657261746f7200000000006064820152608401610927565b611b08613628565b565b336001600160a01b037f00000000000000000000000000000000000000000000000000000000000000001614611b525760405162461bcd60e51b8152600401610927906145d0565b600480546001600160a01b0319166001600160a01b0392909216919091179055565b336001600160a01b037f00000000000000000000000000000000000000000000000000000000000000001614611bbc5760405162461bcd60e51b81526004016109279061461a565b60026001541415611bdf5760405162461bcd60e51b815260040161092790614666565b6002600155611bec612cc6565b6000805b8551811015611d8a57600060086000888481518110611c1157611c1161469d565b6020908102919091018101516001600160a01b03168252818101929092526040908101600020815161016081018352815481526001820154938101939093526002810154918301919091526003810154606083015260048101546001600160781b038082166080850152600160781b808304821660a086015260ff600160f01b808504821660c0880152600160f81b909404811660e0870152600590940154808316610100870152908104909116610120850152041615156101408201528851909150611d3190899084908110611cea57611cea61469d565b6020026020010151826020015183606001518460a001516001600160781b03168560e001516064611d1b91906148c5565b60ff168660a001516001600160781b0316612d0c565b888381518110611d4357611d4361469d565b602002602001018181525050878281518110611d6157611d6161469d565b602002602001015183611d7491906146c9565b9250508080611d82906146e1565b915050611bf0565b506040516370a0823160e01b81526000906001600160a01b037f000000000000000000000000000000000000000000000000000000000000000016906370a0823190611dda90309060040161448a565b60206040518083038186803b158015611df257600080fd5b505afa158015611e06573d6000803e3d6000fd5b505050506040513d601f19601f82011682018060405250810190611e2a91906146fc565b9050611e7a7f00000000000000000000000000000000000000000000000000000000000000007f000000000000000000000000000000000000000000000000000000000000000084888888613212565b6040516370a0823160e01b815281906001600160a01b037f000000000000000000000000000000000000000000000000000000000000000016906370a0823190611ec890309060040161448a565b60206040518083038186803b158015611ee057600080fd5b505afa158015611ef4573d6000803e3d6000fd5b505050506040513d601f19601f82011682018060405250810190611f1891906146fc565b611f229190614877565b905060005b8651811015611fae57611f9c878281518110611f4557611f4561469d565b6020026020010151898381518110611f5f57611f5f61469d565b6020026020010151858b8581518110611f7a57611f7a61469d565b602002602001015186611f8d91906148e8565b611f979190614907565b613673565b80611fa6816146e1565b915050611f27565b505060018055505050505050565b60026001541415611fdf5760405162461bcd60e51b815260040161092790614666565b600260015533600090815260086020526040908190206005018054831515600160f01b0260ff60f01b19909116179055517fd72547ad77e9806d3502cb62f025f39b0f91fc8d748a41c6ac147ecc19c8d6839061204190831515815260200190565b60405180910390a15060018055565b6120586133e5565b611b08600061379c565b61206a6133e5565b6002600154141561208d5760405162461bcd60e51b815260040161092790614666565b600260018190556001600160a01b038216600090815260096020526040902090810154600160801b900460ff166121155760405162461bcd60e51b815260206004820152602660248201527f546f6b656e56657374696e673a2076657374696e67206973206e6f74207265766044820152656f6361626c6560d01b6064820152608401610927565b6000612120836137ec565b90506000826001015483600001546121389190614877565b905061214482826146c9565b600560008282546121559190614877565b9091555061218f90506001600160a01b037f00000000000000000000000000000000000000000000000000000000000000001633836133c6565b600080845560018401556040518181526001600160a01b038516907f57c76f5e278bfbd4eeb5207d287aa5a1a9e1113c65f7eefa540e379a2774d13b9060200160405180910390a25050600180555050565b600260015414156122045760405162461bcd60e51b815260040161092790614666565b6002600155612211612cc6565b61221a336137ec565b6005600082825461222b9190614877565b909155505060018055565b600260015414156122595760405162461bcd60e51b815260040161092790614666565b6002600155612266612cc6565b336001600160a01b037f000000000000000000000000000000000000000000000000000000000000000016146122ae5760405162461bcd60e51b81526004016109279061461a565b6000805b825181101561235057600960008483815181106122d1576122d161469d565b60200260200101516001600160a01b03166001600160a01b0316815260200190815260200160002060020160119054906101000a900460ff161561233e576123318382815181106123245761232461469d565b60200260200101516137ec565b61233b90836146c9565b91505b80612348816146e1565b9150506122b2565b5080600560008282546123639190614877565b9091555050600180555050565b600260015414156123935760405162461bcd60e51b815260040161092790614666565b60026001556123cd6001600160a01b037f0000000000000000000000000000000000000000000000000000000000000000163330846135f0565b336000818152600860205260409020600501805460ff60f01b1916600160f01b1790556123fa9082613581565b604051600181527fd72547ad77e9806d3502cb62f025f39b0f91fc8d748a41c6ac147ecc19c8d68390602001612041565b6002600154141561244e5760405162461bcd60e51b815260040161092790614666565b6002600181905533600090815260096020526040908190209091018054831515600160881b0260ff60881b19909116179055517f77772e1d36f25423d87182db3c5ed774dbdb85378da5f7f88f53e6007f0e37569061204190831515815260200190565b600260015414156124d55760405162461bcd60e51b815260040161092790614666565b600260015563ffffffff84166125385760405162461bcd60e51b815260206004820152602260248201527f546f6b656e56657374696e673a206475726174696f6e206d757374206265203e604482015261020360f41b6064820152608401610927565b60018363ffffffff1610156125a55760405162461bcd60e51b815260206004820152602d60248201527f546f6b656e56657374696e673a20736c696365506572696f645365636f6e647360448201526c206d757374206265203e3d203160981b6064820152608401610927565b60006125b18787614960565b955060005b8851811015612639578281815181106125d1576125d161469d565b6020026020010151826125e491906146c9565b91506126278982815181106125fb576125fb61469d565b6020026020010151898989898989888151811061261a5761261a61469d565b602002602001015161389b565b80612631816146e1565b9150506125b6565b50806005600082825461264c91906146c9565b90915550611fae90506001600160a01b037f0000000000000000000000000000000000000000000000000000000000000000163330846135f0565b600260015414156126aa5760405162461bcd60e51b815260040161092790614666565b60026001557f00000000000000000000000000000000000000000000000000000000000000006001600160a01b031673c778417e063141139fce010982780140aa0cd5ab146127365760405162461bcd60e51b81526020600482015260186024820152770a0c2d2e4cac840e8ded6cadc40d2e640dcdee840ae8aa8960431b6044820152606401610927565b73c778417e063141139fce010982780140aa0cd5ab6001600160a01b031663d0e30db0346040518263ffffffff1660e01b81526004016000604051808303818588803b15801561278557600080fd5b505af1158015612799573d6000803e3d6000fd5b50505050506127a734613b3c565b60018055565b6127b5612687565b611b086064611285565b600260015414156127e25760405162461bcd60e51b815260040161092790614666565b6002600155336001600160a01b037f0000000000000000000000000000000000000000000000000000000000000000161461282f5760405162461bcd60e51b8152600401610927906145d0565b600754612868906001600160a01b037f0000000000000000000000000000000000000000000000000000000000000000169033906133c6565b6006546128a1906001600160a01b037f0000000000000000000000000000000000000000000000000000000000000000169033906133c6565b7fa1f87f32d0f17fab0242ca800d736293de8988c14b27747e218cf13d5c249f536006546007546040516128df929190918252602082015260400190565b60405180910390a16000600781905560065560018055565b6002600154141561291a5760405162461bcd60e51b815260040161092790614666565b60026001556129546001600160a01b037f0000000000000000000000000000000000000000000000000000000000000000163330846135f0565b61295d81613b3c565b5060018055565b6001600160a01b03811660009081526009602052604081206002810154429063ffffffff1681101561299a575060009392505050565b60028201546129c09063ffffffff600160401b8204811691640100000000900416614960565b63ffffffff1681106129e557600182015482546129dd9190614877565b949350505050565b6002820154600090612a0590640100000000900463ffffffff1683614877565b6002840154909150600160601b900463ffffffff166000612a268284614907565b90506000612a3483836148e8565b60028701548754919250600091600160401b90910463ffffffff1690612a5b9084906148e8565b612a659190614907565b9050866001015481612a779190614877565b9998505050505050505050565b60026001541415612aa75760405162461bcd60e51b815260040161092790614666565b6002600155612ab4612cc6565b33600090815260086020526040902060010154811115612ae65760405162461bcd60e51b815260040161092790614929565b3360009081526008602052604081206001018054839290612b08908490614877565b90915550507f00000000000000000000000000000000000000000000000000000000000000006001600160a01b031673c778417e063141139fce010982780140aa0cd5ab1415612bea57604051632e1a7d4d60e01b81526004810182905273c778417e063141139fce010982780140aa0cd5ab90632e1a7d4d90602401600060405180830381600087803b158015612b9f57600080fd5b505af1158015612bb3573d6000803e3d6000fd5b505060405133925083156108fc02915083906000818181858888f19350505050158015612be4573d6000803e3d6000fd5b50612c1e565b612c1e6001600160a01b037f00000000000000000000000000000000000000000000000000000000000000001633836133c6565b60405181815233907f5135ea2f98d3f162e3ddba39690cb01c8efe7e45ca7d4a15cf43be3d2981bc7990602001611944565b612c586133e5565b6001600160a01b038116612cbd5760405162461bcd60e51b815260206004820152602660248201527f4f776e61626c653a206e6577206f776e657220697320746865207a65726f206160448201526564647265737360d01b6064820152608401610927565b61095c8161379c565b60025460ff1615611b085760405162461bcd60e51b815260206004820152601060248201526f14185d5cd8589b194e881c185d5cd95960821b6044820152606401610927565b60008160648486612d1d898b6146c9565b612d2791906146c9565b612d3191906148e8565b612d3b9190614907565b1015612d4957506000612d90565b612d8d87612d8888856064888a612d608d866146c9565b612d6a91906146c9565b612d7491906148e8565b612d7e9190614907565b612d889190614877565b613b9b565b90505b9695505050505050565b600081846001600160a01b031663dd62ed3e30866040518363ffffffff1660e01b8152600401612dcb929190614988565b60206040518083038186803b158015612de357600080fd5b505afa158015612df7573d6000803e3d6000fd5b505050506040513d601f19601f82011682018060405250810190612e1b91906146fc565b612e2591906146c9565b9050612e7d8463095ea7b360e01b8584604051602401612e469291906149a2565b60408051601f198184030181529190526020810180516001600160e01b03166001600160e01b031990931692909217909152613bb4565b50505050565b801580612f0b5750604051636eb1769f60e11b81526001600160a01b0384169063dd62ed3e90612eb99030908690600401614988565b60206040518083038186803b158015612ed157600080fd5b505afa158015612ee5573d6000803e3d6000fd5b505050506040513d601f19601f82011682018060405250810190612f0991906146fc565b155b612f765760405162461bcd60e51b815260206004820152603660248201527f5361666545524332303a20617070726f76652066726f6d206e6f6e2d7a65726f60448201527520746f206e6f6e2d7a65726f20616c6c6f77616e636560501b6064820152608401610927565b612f958363095ea7b360e01b8484604051602401612e469291906149a2565b505050565b60005b845181101561306c57600082858381518110612fbb57612fbb61469d565b602002602001015185612fce91906148e8565b612fd89190614907565b9050612ffd868381518110612fef57612fef61469d565b602002602001015182613c86565b85828151811061300f5761300f61469d565b60200260200101516001600160a01b03167fc79bf59d951451418a58384c161415b1c2a7b2bf78f598e34f475cb6d2f00a5a8260405161305191815260200190565b60405180910390a25080613064816146e1565b915050612f9d565b5050505050565b60005b845181101561306c576000828583815181106130945761309461469d565b6020026020010151856130a791906148e8565b6130b19190614907565b90506130d68683815181106130c8576130c861469d565b602002602001015182613ce7565b8582815181106130e8576130e861469d565b60200260200101516001600160a01b03167f07a3768b162f666fe006ed31122c328961b288cfccc1ed6e0adebae2737d12cf8260405161312a91815260200190565b60405180910390a2508061313d816146e1565b915050613076565b6001600160a01b03821660009081526008602052604081208054829184918390613170908490614877565b90915550506001600160a01b038416600090815260086020526040812060050180548592906131a99084906001600160781b03166149bb565b92506101000a8154816001600160781b0302191690836001600160781b031602179055506000670de0b6b3a76400006131e3866001613d42565b6131ed90866148e8565b6131f79190614907565b90506132038185614877565b935083925090505b9250929050565b600254613231906001600160a01b038881169161010090041686612d9a565b600254604051631da8939960e01b81526101009091046001600160a01b031690631da89399906132b3907f0000000000000000000000000000000000000000000000000000000000000000907f0000000000000000000000000000000000000000000000000000000000000000908b908b908b908b908b908b906004016149dd565b600060405180830381600087803b1580156132cd57600080fd5b505af11580156132e1573d6000803e3d6000fd5b50505050505050505050565b600080670de0b6b3a7640000613304856000613d42565b61330e90856148e8565b6133189190614907565b90506133248184614877565b6001600160a01b0385166000908152600860205260408120600101805492955085929091906133549084906146c9565b90915550506001600160a01b03841660009081526008602052604090206005018054849190600f90613397908490600160781b90046001600160781b03166149bb565b92506101000a8154816001600160781b0302191690836001600160781b03160217905550809150505b92915050565b612f958363a9059cbb60e01b8484604051602401612e469291906149a2565b6000546001600160a01b03163314611b085760405162461bcd60e51b815260206004820181905260248201527f4f776e61626c653a2063616c6c6572206973206e6f7420746865206f776e65726044820152606401610927565b7fd5ab0ba977775ab51b7d5a1af0f0d324899d0fdaf673af0e59f567724025b108600260019054906101000a90046001600160a01b031682604051613485929190614988565b60405180910390a1600354604051630b90f5dd60e41b81526001600160a01b039091169063b90f5dd0906134bd90849060040161448a565b60206040518083038186803b1580156134d557600080fd5b505afa1580156134e9573d6000803e3d6000fd5b505050506040513d601f19601f8201168201806040525081019061350d9190614a4b565b6135595760405162461bcd60e51b815260206004820152601d60248201527f4d61726b65744d616b6572547261646572206e6f7420616c6c6f7765640000006044820152606401610927565b600280546001600160a01b0390921661010002610100600160a81b0319909216919091179055565b6001600160a01b038216600090815260086020526040812080548392906135a99084906146c9565b90915550506040518181526001600160a01b038316907f9e71bc8eea02a63969f509818f2dafb9254532904319f9dbda79b67bd34a5f3d9060200160405180910390a25050565b6040516001600160a01b0380851660248301528316604482015260648101829052612e7d9085906323b872dd60e01b90608401612e46565b613630613f6a565b6002805460ff191690557f5db9ee0a495bf2e6ff9c91a7834c1ba4fdd244a5e8aa4e537bd38aeae4b073aa33604051613669919061448a565b60405180910390a1565b6001600160a01b0383166000908152600860205260408120805483929061369b9084906146c9565b90915550506001600160a01b038316600090815260086020526040812060040180548392906136d49084906001600160781b03166149bb565b92506101000a8154816001600160781b0302191690836001600160781b031602179055508160086000856001600160a01b03166001600160a01b0316815260200190815260200160002060010160008282546137309190614877565b90915550506001600160a01b03831660009081526008602052604090206004018054839190600f90613773908490600160781b90046001600160781b03166149bb565b92506101000a8154816001600160781b0302191690836001600160781b03160217905550505050565b600080546001600160a01b038381166001600160a01b0319831681178455604051919092169283917f8be0079c531659141344cd1fd0a4f28419497f9722a3daafe3b4186f6b6457e09190a35050565b6001600160a01b03811660009081526009602052604081208161380e84612964565b90508082600101600082825461382491906146c9565b90915550506001600160a01b038416600090815260086020526040812080548392906138519084906146c9565b90915550506040518181526001600160a01b038516907f94fd705dafc89ff1f03c1207631245602407f0e8ee47e1878a4e2ae954cd76749060200160405180910390a29392505050565b600081116138eb5760405162461bcd60e51b815260206004820181905260248201527f546f6b656e56657374696e673a20616d6f756e74206d757374206265203e20306044820152606401610927565b6001600160a01b038716600090815260096020526040902054156139675760405162461bcd60e51b815260206004820152602d60248201527f546f6b656e56657374696e673a2056657374696e67207363686564756c65206160448201526c6c72656164792065786973747360981b6064820152608401610927565b8460096000896001600160a01b03166001600160a01b0316815260200190815260200160002060020160006101000a81548163ffffffff021916908363ffffffff1602179055508560096000896001600160a01b03166001600160a01b0316815260200190815260200160002060020160046101000a81548163ffffffff021916908363ffffffff1602179055508360096000896001600160a01b03166001600160a01b0316815260200190815260200160002060020160086101000a81548163ffffffff021916908363ffffffff1602179055508260096000896001600160a01b03166001600160a01b03168152602001908152602001600020600201600c6101000a81548163ffffffff021916908363ffffffff1602179055508160096000896001600160a01b03166001600160a01b0316815260200190815260200160002060020160106101000a81548160ff0219169083151502179055508060096000896001600160a01b03166001600160a01b0316815260200190815260200160002060000181905550866001600160a01b03167f82a09c12487d9950c96682e398533045828bd33d830b54dddd5684ac79bf27bd82604051613b2b91815260200190565b60405180910390a250505050505050565b3360009081526008602052604081206001018054839290613b5e9084906146c9565b909155505060405181815233907f8109037fc5b3b3f0368806e9cd981c30daa1a3d0c26be8307576c4f5f2125d5e9060200160405180910390a250565b600081831115613bab5781613bad565b825b9392505050565b6000613c09826040518060400160405280602081526020017f5361666545524332303a206c6f772d6c6576656c2063616c6c206661696c6564815250856001600160a01b0316613fb39092919063ffffffff16565b805190915015612f955780806020019051810190613c279190614a4b565b612f955760405162461bcd60e51b815260206004820152602a60248201527f5361666545524332303a204552433230206f7065726174696f6e20646964206e6044820152691bdd081cdd58d8d9595960b21b6064820152608401610927565b6001600160a01b03821660009081526008602052604081206002018054839290613cb19084906146c9565b90915550506001600160a01b03821660009081526008602052604081208054839290613cde908490614877565b90915550505050565b6001600160a01b03821660009081526008602052604081206003018054839290613d129084906146c9565b90915550506001600160a01b03821660009081526008602052604081206001018054839290613cde908490614877565b60008115613e5257600360009054906101000a90046001600160a01b03166001600160a01b0316639104e9786040518163ffffffff1660e01b815260040160206040518083038186803b158015613d9857600080fd5b505afa158015613dac573d6000803e3d6000fd5b505050506040513d601f19601f82011682018060405250810190613dd09190614a68565b6001600160a01b03166330e1dcfc846040518263ffffffff1660e01b8152600401613dfb919061448a565b60206040518083038186803b158015613e1357600080fd5b505afa158015613e27573d6000803e3d6000fd5b505050506040513d601f19601f82011682018060405250810190613e4b91906146fc565b9050613f56565b600360009054906101000a90046001600160a01b03166001600160a01b0316639104e9786040518163ffffffff1660e01b815260040160206040518083038186803b158015613ea057600080fd5b505afa158015613eb4573d6000803e3d6000fd5b505050506040513d601f19601f82011682018060405250810190613ed89190614a68565b6001600160a01b031663d79570e0846040518263ffffffff1660e01b8152600401613f03919061448a565b60206040518083038186803b158015613f1b57600080fd5b505afa158015613f2f573d6000803e3d6000fd5b505050506040513d601f19601f82011682018060405250810190613f5391906146fc565b90505b66b1a2bc2ec500008111156133c057600080fd5b60025460ff16611b085760405162461bcd60e51b815260206004820152601460248201527314185d5cd8589b194e881b9bdd081c185d5cd95960621b6044820152606401610927565b60606129dd8484600085856001600160a01b0385163b6140155760405162461bcd60e51b815260206004820152601d60248201527f416464726573733a2063616c6c20746f206e6f6e2d636f6e74726163740000006044820152606401610927565b600080866001600160a01b031685876040516140319190614a85565b60006040518083038185875af1925050503d806000811461406e576040519150601f19603f3d011682016040523d82523d6000602084013e614073565b606091505b509150915061408382828661408e565b979650505050505050565b6060831561409d575081613bad565b8251156140ad5782518084602001fd5b8160405162461bcd60e51b81526004016109279190614aa1565b6000602082840312156140d957600080fd5b5035919050565b634e487b7160e01b600052604160045260246000fd5b604051601f8201601f191681016001600160401b038111828210171561411e5761411e6140e0565b604052919050565b60006001600160401b0382111561413f5761413f6140e0565b5060051b60200190565b600082601f83011261415a57600080fd5b8135602061416f61416a83614126565b6140f6565b82815260059290921b8401810191818101908684111561418e57600080fd5b8286015b848110156141a95780358352918301918301614192565b509695505050505050565b6001600160a01b038116811461095c57600080fd5b600082601f8301126141da57600080fd5b813560206141ea61416a83614126565b82815260059290921b8401810191818101908684111561420957600080fd5b8286015b848110156141a9578035614220816141b4565b835291830191830161420d565b60008083601f84011261423f57600080fd5b5081356001600160401b0381111561425657600080fd5b60208301915083602082850101111561320b57600080fd5b600080600080600080600060c0888a03121561428957600080fd5b87356001600160401b03808211156142a057600080fd5b6142ac8b838c01614149565b985060208a01359150808211156142c257600080fd5b6142ce8b838c016141c9565b975060408a01359150808211156142e457600080fd5b6142f08b838c01614149565b965060608a013591508082111561430657600080fd5b6143128b838c016141c9565b955060808a0135945060a08a013591508082111561432f57600080fd5b5061433c8a828b0161422d565b989b979a50959850939692959293505050565b60006020828403121561436157600080fd5b813560ff81168114613bad57600080fd5b60008060008060006080868803121561438a57600080fd5b85356001600160401b03808211156143a157600080fd5b6143ad89838a01614149565b965060208801359150808211156143c357600080fd5b6143cf89838a016141c9565b95506040880135945060608801359150808211156143ec57600080fd5b506143f98882890161422d565b969995985093965092949392505050565b60006020828403121561441c57600080fd5b8135613bad816141b4565b6000806040838503121561443a57600080fd5b82356001600160401b038082111561445157600080fd5b61445d86838701614149565b9350602085013591508082111561447357600080fd5b50614480858286016141c9565b9150509250929050565b6001600160a01b0391909116815260200190565b801515811461095c57600080fd5b6000602082840312156144be57600080fd5b8135613bad8161449e565b6000602082840312156144db57600080fd5b81356001600160401b038111156144f157600080fd5b6129dd848285016141c9565b803563ffffffff8116811461451157600080fd5b919050565b600080600080600080600060e0888a03121561453157600080fd5b87356001600160401b038082111561454857600080fd5b6145548b838c016141c9565b985061456260208b016144fd565b975061457060408b016144fd565b965061457e60608b016144fd565b955061458c60808b016144fd565b945060a08a0135915061459e8261449e565b90925060c089013590808211156145b457600080fd5b506145c18a828b01614149565b91505092959891949750929550565b6020808252602a908201527f6f6e6c794d6f64657261746f723a2063616c6c6572206973206e6f74207468656040820152691036b7b232b930ba37b960b11b606082015260800190565b6020808252602c908201527f6f6e6c79436f6e74726f6c6c65723a2063616c6c6572206973206e6f7420746860408201526b329031b7b73a3937b63632b960a11b606082015260800190565b6020808252601f908201527f5265656e7472616e637947756172643a207265656e7472616e742063616c6c00604082015260600190565b634e487b7160e01b600052603260045260246000fd5b634e487b7160e01b600052601160045260246000fd5b600082198211156146dc576146dc6146b3565b500190565b60006000198214156146f5576146f56146b3565b5060010190565b60006020828403121561470e57600080fd5b5051919050565b600081518084526020808501945080840160005b8381101561474557815187529582019590820190600101614729565b509495945050505050565b600081518084526020808501945080840160005b838110156147455781516001600160a01b031687529582019590820190600101614764565b60005b838110156147a457818101518382015260200161478c565b83811115612e7d5750506000910152565b600081518084526147cd816020860160208601614789565b601f01601f19169290920160200192915050565b60006101208083526147f58184018d614715565b90508281036020840152614809818c614750565b9050828103604084015261481d818b614715565b90508281036060840152614831818a614750565b90508760808401528660a08401528560c084015282810360e084015261485781866147b5565b91505060018060a01b0383166101008301529a9950505050505050505050565b600082821015614889576148896146b3565b500390565b6020808252601f908201527f526174696f206d757374206265206265747765656e203020616e642031303000604082015260600190565b600060ff821660ff8416808210156148df576148df6146b3565b90039392505050565b6000816000190483118215151615614902576149026146b3565b500290565b60008261492457634e487b7160e01b600052601260045260246000fd5b500490565b6020808252601d908201527f4e6f7420656e6f75676820746f6b656e7320746f207769746864726177000000604082015260600190565b600063ffffffff80831681851680830382111561497f5761497f6146b3565b01949350505050565b6001600160a01b0392831681529116602082015260400190565b6001600160a01b03929092168252602082015260400190565b60006001600160781b0382811684821680830382111561497f5761497f6146b3565b6001600160a01b03898116825288811660208301528781166040830152861660608201526080810185905260a0810184905260e060c08201819052810182905260006101008385828501376000838501820152601f909301601f191690910190910198975050505050505050565b600060208284031215614a5d57600080fd5b8151613bad8161449e565b600060208284031215614a7a57600080fd5b8151613bad816141b4565b60008251614a97818460208701614789565b9190910192915050565b602081526000613bad60208301846147b556fea264697066735822122099ec61ba874c56030fe2f17ceadb7fce7e300d515f175d72c55db978fb90a01864736f6c63430008090033",
  "linkReferences": {},
  "deployedLinkReferences": {}
}